{
    "_format": "hh-sol-artifact-1",
    "contractName": "DAO",
    "sourceName": "contracts/DAO.sol",
    "abi": [
        {
            "inputs": [],
            "name": "AccessControlBadConfirmation",
            "type": "error"
        },
        {
            "inputs": [
                {
                    "internalType": "address",
                    "name": "account",
                    "type": "address"
                },
                {
                    "internalType": "bytes32",
                    "name": "neededRole",
                    "type": "bytes32"
                }
            ],
            "name": "AccessControlUnauthorizedAccount",
            "type": "error"
        },
        {
            "inputs": [],
            "name": "ReentrancyGuardReentrantCall",
            "type": "error"
        },
        {
            "anonymous": false,
            "inputs": [
                {
                    "indexed": true,
                    "internalType": "address",
                    "name": "initiator",
                    "type": "address"
                },
                {
                    "indexed": false,
                    "internalType": "bytes32",
                    "name": "role",
                    "type": "bytes32"
                },
                {
                    "indexed": false,
                    "internalType": "string",
                    "name": "message",
                    "type": "string"
                },
                {
                    "indexed": true,
                    "internalType": "address",
                    "name": "beneficiary",
                    "type": "address"
                },
                {
                    "indexed": false,
                    "internalType": "uint256",
                    "name": "amount",
                    "type": "uint256"
                }
            ],
            "name": "Action",
            "type": "event"
        },
        {
            "anonymous": false,
            "inputs": [
                {
                    "indexed": true,
                    "internalType": "bytes32",
                    "name": "role",
                    "type": "bytes32"
                },
                {
                    "indexed": true,
                    "internalType": "bytes32",
                    "name": "previousAdminRole",
                    "type": "bytes32"
                },
                {
                    "indexed": true,
                    "internalType": "bytes32",
                    "name": "newAdminRole",
                    "type": "bytes32"
                }
            ],
            "name": "RoleAdminChanged",
            "type": "event"
        },
        {
            "anonymous": false,
            "inputs": [
                {
                    "indexed": true,
                    "internalType": "bytes32",
                    "name": "role",
                    "type": "bytes32"
                },
                {
                    "indexed": true,
                    "internalType": "address",
                    "name": "account",
                    "type": "address"
                },
                {
                    "indexed": true,
                    "internalType": "address",
                    "name": "sender",
                    "type": "address"
                }
            ],
            "name": "RoleGranted",
            "type": "event"
        },
        {
            "anonymous": false,
            "inputs": [
                {
                    "indexed": true,
                    "internalType": "bytes32",
                    "name": "role",
                    "type": "bytes32"
                },
                {
                    "indexed": true,
                    "internalType": "address",
                    "name": "account",
                    "type": "address"
                },
                {
                    "indexed": true,
                    "internalType": "address",
                    "name": "sender",
                    "type": "address"
                }
            ],
            "name": "RoleRevoked",
            "type": "event"
        },
        {
            "inputs": [],
            "name": "DEFAULT_ADMIN_ROLE",
            "outputs": [
                {
                    "internalType": "bytes32",
                    "name": "",
                    "type": "bytes32"
                }
            ],
            "stateMutability": "view",
            "type": "function"
        },
        {
            "inputs": [
                {
                    "internalType": "uint256",
                    "name": "proposalId",
                    "type": "uint256"
                },
                {
                    "internalType": "bool",
                    "name": "chosen",
                    "type": "bool"
                }
            ],
            "name": "Vote",
            "outputs": [
                {
                    "components": [
                        {
                            "internalType": "address",
                            "name": "voter",
                            "type": "address"
                        },
                        {
                            "internalType": "uint256",
                            "name": "timestamp",
                            "type": "uint256"
                        },
                        {
                            "internalType": "bool",
                            "name": "chosen",
                            "type": "bool"
                        }
                    ],
                    "internalType": "struct DAO.VotedStruct",
                    "name": "",
                    "type": "tuple"
                }
            ],
            "stateMutability": "nonpayable",
            "type": "function"
        },
        {
            "inputs": [],
            "name": "contribute",
            "outputs": [],
            "stateMutability": "payable",
            "type": "function"
        },
        {
            "inputs": [
                {
                    "internalType": "string",
                    "name": "title",
                    "type": "string"
                },
                {
                    "internalType": "string",
                    "name": "description",
                    "type": "string"
                },
                {
                    "internalType": "address",
                    "name": "beneficiary",
                    "type": "address"
                },
                {
                    "internalType": "uint256",
                    "name": "amount",
                    "type": "uint256"
                }
            ],
            "name": "createProposal",
            "outputs": [],
            "stateMutability": "nonpayable",
            "type": "function"
        },
        {
            "inputs": [],
            "name": "daoBalance",
            "outputs": [
                {
                    "internalType": "uint256",
                    "name": "",
                    "type": "uint256"
                }
            ],
            "stateMutability": "view",
            "type": "function"
        },
        {
            "inputs": [],
            "name": "getBalance",
            "outputs": [
                {
                    "internalType": "uint256",
                    "name": "",
                    "type": "uint256"
                }
            ],
            "stateMutability": "view",
            "type": "function"
        },
        {
            "inputs": [
                {
                    "internalType": "uint256",
                    "name": "proposalId",
                    "type": "uint256"
                }
            ],
            "name": "getProposal",
            "outputs": [
                {
                    "components": [
                        {
                            "internalType": "uint256",
                            "name": "id",
                            "type": "uint256"
                        },
                        {
                            "internalType": "uint256",
                            "name": "amount",
                            "type": "uint256"
                        },
                        {
                            "internalType": "uint256",
                            "name": "duration",
                            "type": "uint256"
                        },
                        {
                            "internalType": "uint256",
                            "name": "upvotes",
                            "type": "uint256"
                        },
                        {
                            "internalType": "uint256",
                            "name": "downvotes",
                            "type": "uint256"
                        },
                        {
                            "internalType": "string",
                            "name": "title",
                            "type": "string"
                        },
                        {
                            "internalType": "string",
                            "name": "description",
                            "type": "string"
                        },
                        {
                            "internalType": "bool",
                            "name": "passed",
                            "type": "bool"
                        },
                        {
                            "internalType": "bool",
                            "name": "paid",
                            "type": "bool"
                        },
                        {
                            "internalType": "address payable",
                            "name": "beneficiary",
                            "type": "address"
                        },
                        {
                            "internalType": "address",
                            "name": "originator",
                            "type": "address"
                        },
                        {
                            "internalType": "address",
                            "name": "executor",
                            "type": "address"
                        }
                    ],
                    "internalType": "struct DAO.ProposalStruct",
                    "name": "",
                    "type": "tuple"
                }
            ],
            "stateMutability": "view",
            "type": "function"
        },
        {
            "inputs": [],
            "name": "getProposals",
            "outputs": [
                {
                    "components": [
                        {
                            "internalType": "uint256",
                            "name": "id",
                            "type": "uint256"
                        },
                        {
                            "internalType": "uint256",
                            "name": "amount",
                            "type": "uint256"
                        },
                        {
                            "internalType": "uint256",
                            "name": "duration",
                            "type": "uint256"
                        },
                        {
                            "internalType": "uint256",
                            "name": "upvotes",
                            "type": "uint256"
                        },
                        {
                            "internalType": "uint256",
                            "name": "downvotes",
                            "type": "uint256"
                        },
                        {
                            "internalType": "string",
                            "name": "title",
                            "type": "string"
                        },
                        {
                            "internalType": "string",
                            "name": "description",
                            "type": "string"
                        },
                        {
                            "internalType": "bool",
                            "name": "passed",
                            "type": "bool"
                        },
                        {
                            "internalType": "bool",
                            "name": "paid",
                            "type": "bool"
                        },
                        {
                            "internalType": "address payable",
                            "name": "beneficiary",
                            "type": "address"
                        },
                        {
                            "internalType": "address",
                            "name": "originator",
                            "type": "address"
                        },
                        {
                            "internalType": "address",
                            "name": "executor",
                            "type": "address"
                        }
                    ],
                    "internalType": "struct DAO.ProposalStruct[]",
                    "name": "props",
                    "type": "tuple[]"
                }
            ],
            "stateMutability": "view",
            "type": "function"
        },
        {
            "inputs": [],
            "name": "getProposerBalance",
            "outputs": [
                {
                    "internalType": "uint256",
                    "name": "",
                    "type": "uint256"
                }
            ],
            "stateMutability": "view",
            "type": "function"
        },
        {
            "inputs": [],
            "name": "getProposerVotes",
            "outputs": [
                {
                    "internalType": "uint256[]",
                    "name": "",
                    "type": "uint256[]"
                }
            ],
            "stateMutability": "view",
            "type": "function"
        },
        {
            "inputs": [
                {
                    "internalType": "bytes32",
                    "name": "role",
                    "type": "bytes32"
                }
            ],
            "name": "getRoleAdmin",
            "outputs": [
                {
                    "internalType": "bytes32",
                    "name": "",
                    "type": "bytes32"
                }
            ],
            "stateMutability": "view",
            "type": "function"
        },
        {
            "inputs": [],
            "name": "getStakeholderBalance",
            "outputs": [
                {
                    "internalType": "uint256",
                    "name": "",
                    "type": "uint256"
                }
            ],
            "stateMutability": "view",
            "type": "function"
        },
        {
            "inputs": [
                {
                    "internalType": "uint256",
                    "name": "proposalId",
                    "type": "uint256"
                }
            ],
            "name": "getVotesOf",
            "outputs": [
                {
                    "components": [
                        {
                            "internalType": "address",
                            "name": "voter",
                            "type": "address"
                        },
                        {
                            "internalType": "uint256",
                            "name": "timestamp",
                            "type": "uint256"
                        },
                        {
                            "internalType": "bool",
                            "name": "chosen",
                            "type": "bool"
                        }
                    ],
                    "internalType": "struct DAO.VotedStruct[]",
                    "name": "",
                    "type": "tuple[]"
                }
            ],
            "stateMutability": "view",
            "type": "function"
        },
        {
            "inputs": [
                {
                    "internalType": "bytes32",
                    "name": "role",
                    "type": "bytes32"
                },
                {
                    "internalType": "address",
                    "name": "account",
                    "type": "address"
                }
            ],
            "name": "grantRole",
            "outputs": [],
            "stateMutability": "nonpayable",
            "type": "function"
        },
        {
            "inputs": [
                {
                    "internalType": "bytes32",
                    "name": "role",
                    "type": "bytes32"
                },
                {
                    "internalType": "address",
                    "name": "account",
                    "type": "address"
                }
            ],
            "name": "hasRole",
            "outputs": [
                {
                    "internalType": "bool",
                    "name": "",
                    "type": "bool"
                }
            ],
            "stateMutability": "view",
            "type": "function"
        },
        {
            "inputs": [],
            "name": "isProposer",
            "outputs": [
                {
                    "internalType": "bool",
                    "name": "",
                    "type": "bool"
                }
            ],
            "stateMutability": "view",
            "type": "function"
        },
        {
            "inputs": [],
            "name": "isStakeholder",
            "outputs": [
                {
                    "internalType": "bool",
                    "name": "",
                    "type": "bool"
                }
            ],
            "stateMutability": "view",
            "type": "function"
        },
        {
            "inputs": [
                {
                    "internalType": "uint256",
                    "name": "proposalId",
                    "type": "uint256"
                }
            ],
            "name": "payBeneficiary",
            "outputs": [
                {
                    "internalType": "uint256",
                    "name": "",
                    "type": "uint256"
                }
            ],
            "stateMutability": "nonpayable",
            "type": "function"
        },
        {
            "inputs": [
                {
                    "internalType": "bytes32",
                    "name": "role",
                    "type": "bytes32"
                },
                {
                    "internalType": "address",
                    "name": "callerConfirmation",
                    "type": "address"
                }
            ],
            "name": "renounceRole",
            "outputs": [],
            "stateMutability": "nonpayable",
            "type": "function"
        },
        {
            "inputs": [
                {
                    "internalType": "bytes32",
                    "name": "role",
                    "type": "bytes32"
                },
                {
                    "internalType": "address",
                    "name": "account",
                    "type": "address"
                }
            ],
            "name": "revokeRole",
            "outputs": [],
            "stateMutability": "nonpayable",
            "type": "function"
        },
        {
            "inputs": [
                {
                    "internalType": "bytes4",
                    "name": "interfaceId",
                    "type": "bytes4"
                }
            ],
            "name": "supportsInterface",
            "outputs": [
                {
                    "internalType": "bool",
                    "name": "",
                    "type": "bool"
                }
            ],
            "stateMutability": "view",
            "type": "function"
        }
    ],
    "bytecode": "0x6101006040527ff4bb84e1768dd286358a736d195a0b228621173f655a73b89bf8b191ed0ba07d6080908152507fc4338366b9cfc07901c46677a3a32746bd05d5c114e4d0d293c468cff87acde060a090815250670de0b6b3a764000060c09081525061025863ffffffff1660e09063ffffffff1681525034801561008357600080fd5b50600160008190555060805160a05160c05160e0516139d861011260003960006110c301526000611a4f0152600081816105c20152818161085301528181610f360152818161114c015281816111b10152818161143e01528181611564015281816119d501528181611abd01528181611c820152611cf7015260008181610e6a0152611b3f01526139d86000f3fe60806040526004361061012a5760003560e01c80637cdc2eb7116100ab578063bd9728161161006f578063bd9728161461041a578063c02146ac14610445578063c7f758a814610470578063d547741f146104ad578063d7bb99ba146104d6578063f86f19fd146104e05761012a565b80637cdc2eb7146103215780638bfa1f401461034a57806391d1485414610387578063a217fddf146103c4578063a2b5098b146103ef5761012a565b80632f2ff15d116100f25780632f2ff15d1461023c57806336568abe1461026557806362564c481461028e57806369a136dc146102b95780636a80d84d146102f65761012a565b806301ffc9a71461012f578063119c37c81461016c57806312065fe0146101a9578063248a9ca3146101d45780632a14652414610211575b600080fd5b34801561013b57600080fd5b5061015660048036038101906101519190612442565b61050b565b604051610163919061248a565b60405180910390f35b34801561017857600080fd5b50610193600480360381019061018e91906124db565b610585565b6040516101a09190612517565b60405180910390f35b3480156101b557600080fd5b506101be6108a1565b6040516101cb9190612517565b60405180910390f35b3480156101e057600080fd5b506101fb60048036038101906101f69190612568565b6108e8565b60405161020891906125a4565b60405180910390f35b34801561021d57600080fd5b50610226610908565b604051610233919061248a565b60405180910390f35b34801561024857600080fd5b50610263600480360381019061025e919061261d565b610951565b005b34801561027157600080fd5b5061028c6004803603810190610287919061261d565b610973565b005b34801561029a57600080fd5b506102a36109ee565b6040516102b09190612908565b60405180910390f35b3480156102c557600080fd5b506102e060048036038101906102db91906124db565b610d5d565b6040516102ed9190612a1b565b60405180910390f35b34801561030257600080fd5b5061030b610e4a565b6040516103189190612517565b60405180910390f35b34801561032d57600080fd5b5061034860048036038101906103439190612b72565b610f18565b005b34801561035657600080fd5b50610371600480360381019061036c9190612c3d565b61118b565b60405161037e9190612cbf565b60405180910390f35b34801561039357600080fd5b506103ae60048036038101906103a9919061261d565b6114b5565b6040516103bb919061248a565b60405180910390f35b3480156103d057600080fd5b506103d9611520565b6040516103e691906125a4565b60405180910390f35b3480156103fb57600080fd5b50610404611527565b6040516104119190612d89565b60405180910390f35b34801561042657600080fd5b5061042f611660565b60405161043c9190612517565b60405180910390f35b34801561045157600080fd5b5061045a611666565b604051610467919061248a565b60405180910390f35b34801561047c57600080fd5b50610497600480360381019061049291906124db565b6116af565b6040516104a49190612eb6565b60405180910390f35b3480156104b957600080fd5b506104d460048036038101906104cf919061261d565b61196b565b005b6104de61198d565b005b3480156104ec57600080fd5b506104f5611cba565b6040516105029190612517565b60405180910390f35b60007f7965db0b000000000000000000000000000000000000000000000000000000007bffffffffffffffffffffffffffffffffffffffffffffffffffffffff1916827bffffffffffffffffffffffffffffffffffffffffffffffffffffffff1916148061057e575061057d82611da5565b5b9050919050565b60006040518060400160405280601c81526020017f556e617574686f72697a65643a2050726f706f73657273206f6e6c79000000008152506105e77f0000000000000000000000000000000000000000000000000000000000000000336114b5565b8190610629576040517f08c379a00000000000000000000000000000000000000000000000000000000081526004016106209190612f22565b60405180910390fd5b50610632611e0f565b600060046000858152602001908152602001600020905080600101546003541015610692576040517f08c379a000000000000000000000000000000000000000000000000000000000815260040161068990612f90565b60405180910390fd5b8060070160019054906101000a900460ff16156106e4576040517f08c379a00000000000000000000000000000000000000000000000000000000081526004016106db90612ffc565b60405180910390fd5b806004015481600301541161072e576040517f08c379a000000000000000000000000000000000000000000000000000000000815260040161072590613068565b60405180910390fd5b60018160070160016101000a81548160ff021916908315150217905550338160090160006101000a81548173ffffffffffffffffffffffffffffffffffffffff021916908373ffffffffffffffffffffffffffffffffffffffff1602179055508060010154600360008282546107a491906130b7565b925050819055506107dd8160070160029054906101000a900473ffffffffffffffffffffffffffffffffffffffff168260010154611e55565b508060070160029054906101000a900473ffffffffffffffffffffffffffffffffffffffff1673ffffffffffffffffffffffffffffffffffffffff163373ffffffffffffffffffffffffffffffffffffffff167fa596782d699d74613fcbf59d33e720baabd313d6be9c95e2268f305430305eb77f00000000000000000000000000000000000000000000000000000000000000008460010154604051610885929190613137565b60405180910390a360035492505061089b611f0d565b50919050565b6000600760003373ffffffffffffffffffffffffffffffffffffffff1673ffffffffffffffffffffffffffffffffffffffff16815260200190815260200160002054905090565b600060016000838152602001908152602001600020600101549050919050565b600080600860003373ffffffffffffffffffffffffffffffffffffffff1673ffffffffffffffffffffffffffffffffffffffff1681526020019081526020016000205411905090565b61095a826108e8565b61096381611f17565b61096d8383611f2b565b50505050565b61097b61201c565b73ffffffffffffffffffffffffffffffffffffffff168173ffffffffffffffffffffffffffffffffffffffff16146109df576040517f6697b23200000000000000000000000000000000000000000000000000000000815260040160405180910390fd5b6109e98282612024565b505050565b6060600260009054906101000a900463ffffffff1663ffffffff1667ffffffffffffffff811115610a2257610a21612a47565b5b604051908082528060200260200182016040528015610a5b57816020015b610a486122f6565b815260200190600190039081610a405790505b50905060005b600260009054906101000a900463ffffffff1663ffffffff16811015610d595760046000828152602001908152602001600020604051806101800160405290816000820154815260200160018201548152602001600282015481526020016003820154815260200160048201548152602001600582018054610ae2906131a2565b80601f0160208091040260200160405190810160405280929190818152602001828054610b0e906131a2565b8015610b5b5780601f10610b3057610100808354040283529160200191610b5b565b820191906000526020600020905b815481529060010190602001808311610b3e57829003601f168201915b50505050508152602001600682018054610b74906131a2565b80601f0160208091040260200160405190810160405280929190818152602001828054610ba0906131a2565b8015610bed5780601f10610bc257610100808354040283529160200191610bed565b820191906000526020600020905b815481529060010190602001808311610bd057829003601f168201915b505050505081526020016007820160009054906101000a900460ff161515151581526020016007820160019054906101000a900460ff161515151581526020016007820160029054906101000a900473ffffffffffffffffffffffffffffffffffffffff1673ffffffffffffffffffffffffffffffffffffffff1673ffffffffffffffffffffffffffffffffffffffff1681526020016008820160009054906101000a900473ffffffffffffffffffffffffffffffffffffffff1673ffffffffffffffffffffffffffffffffffffffff1673ffffffffffffffffffffffffffffffffffffffff1681526020016009820160009054906101000a900473ffffffffffffffffffffffffffffffffffffffff1673ffffffffffffffffffffffffffffffffffffffff1673ffffffffffffffffffffffffffffffffffffffff1681525050828281518110610d4157610d406131d3565b5b60200260200101819052508080600101915050610a61565b5090565b606060066000838152602001908152602001600020805480602002602001604051908101604052809291908181526020016000905b82821015610e3f57838290600052602060002090600302016040518060600160405290816000820160009054906101000a900473ffffffffffffffffffffffffffffffffffffffff1673ffffffffffffffffffffffffffffffffffffffff1673ffffffffffffffffffffffffffffffffffffffff168152602001600182015481526020016002820160009054906101000a900460ff16151515158152505081526020019060010190610d92565b505050509050919050565b600060405180606001604052806021815260200161395560219139610e8f7f0000000000000000000000000000000000000000000000000000000000000000336114b5565b8190610ed1576040517f08c379a0000000000000000000000000000000000000000000000000000000008152600401610ec89190612f22565b60405180910390fd5b50600760003373ffffffffffffffffffffffffffffffffffffffff1673ffffffffffffffffffffffffffffffffffffffff1681526020019081526020016000205491505090565b60405180606001604052806030815260200161392560309139610f5b7f0000000000000000000000000000000000000000000000000000000000000000336114b5565b8190610f9d576040517f08c379a0000000000000000000000000000000000000000000000000000000008152600401610f949190612f22565b60405180910390fd5b5060006002600081819054906101000a900463ffffffff1680929190610fc290613212565b91906101000a81548163ffffffff021916908363ffffffff16021790555090506000600460008363ffffffff16815260200190815260200160002090508163ffffffff168160000181905550338160080160006101000a81548173ffffffffffffffffffffffffffffffffffffffff021916908373ffffffffffffffffffffffffffffffffffffffff1602179055508681600501908161106291906133ea565b508581600601908161107491906133ea565b50848160070160026101000a81548173ffffffffffffffffffffffffffffffffffffffff021916908373ffffffffffffffffffffffffffffffffffffffff1602179055508381600101819055507f000000000000000000000000000000000000000000000000000000000000000063ffffffff16426110f391906134bc565b81600201819055508473ffffffffffffffffffffffffffffffffffffffff163373ffffffffffffffffffffffffffffffffffffffff167fa596782d699d74613fcbf59d33e720baabd313d6be9c95e2268f305430305eb77f00000000000000000000000000000000000000000000000000000000000000008760405161117a92919061353c565b60405180910390a350505050505050565b61119361239d565b6040518060600160405280602d8152602001613976602d91396111d67f0000000000000000000000000000000000000000000000000000000000000000336114b5565b8190611218576040517f08c379a000000000000000000000000000000000000000000000000000000000815260040161120f9190612f22565b60405180910390fd5b50600060046000868152602001908152602001600020905061123981612117565b831561125e5780600301600081548092919061125490613578565b9190505550611279565b80600401600081548092919061127390613578565b91905055505b600560003373ffffffffffffffffffffffffffffffffffffffff1673ffffffffffffffffffffffffffffffffffffffff16815260200190815260200160002081600001549080600181540180825580915050600190039060005260206000200160009091909190915055600660008260000154815260200190815260200160002060405180606001604052803373ffffffffffffffffffffffffffffffffffffffff168152602001428152602001861515815250908060018154018082558091505060019003906000526020600020906003020160009091909190915060008201518160000160006101000a81548173ffffffffffffffffffffffffffffffffffffffff021916908373ffffffffffffffffffffffffffffffffffffffff1602179055506020820151816001015560408201518160020160006101000a81548160ff02191690831515021790555050508060070160029054906101000a900473ffffffffffffffffffffffffffffffffffffffff1673ffffffffffffffffffffffffffffffffffffffff163373ffffffffffffffffffffffffffffffffffffffff167fa596782d699d74613fcbf59d33e720baabd313d6be9c95e2268f305430305eb77f0000000000000000000000000000000000000000000000000000000000000000846001015460405161147092919061360c565b60405180910390a360405180606001604052803373ffffffffffffffffffffffffffffffffffffffff1681526020014281526020018515158152509250505092915050565b60006001600084815260200190815260200160002060000160008373ffffffffffffffffffffffffffffffffffffffff1673ffffffffffffffffffffffffffffffffffffffff16815260200190815260200160002060009054906101000a900460ff16905092915050565b6000801b81565b60606040518060400160405280601c81526020017f556e617574686f72697a65643a206e6f7420612070726f706f736572000000008152506115897f0000000000000000000000000000000000000000000000000000000000000000336114b5565b81906115cb576040517f08c379a00000000000000000000000000000000000000000000000000000000081526004016115c29190612f22565b60405180910390fd5b50600560003373ffffffffffffffffffffffffffffffffffffffff1673ffffffffffffffffffffffffffffffffffffffff16815260200190815260200160002080548060200260200160405190810160405280929190818152602001828054801561165557602002820191906000526020600020905b815481526020019060010190808311611641575b505050505091505090565b60035481565b600080600760003373ffffffffffffffffffffffffffffffffffffffff1673ffffffffffffffffffffffffffffffffffffffff1681526020019081526020016000205411905090565b6116b76122f6565b60046000838152602001908152602001600020604051806101800160405290816000820154815260200160018201548152602001600282015481526020016003820154815260200160048201548152602001600582018054611718906131a2565b80601f0160208091040260200160405190810160405280929190818152602001828054611744906131a2565b80156117915780601f1061176657610100808354040283529160200191611791565b820191906000526020600020905b81548152906001019060200180831161177457829003601f168201915b505050505081526020016006820180546117aa906131a2565b80601f01602080910402602001604051908101604052809291908181526020018280546117d6906131a2565b80156118235780601f106117f857610100808354040283529160200191611823565b820191906000526020600020905b81548152906001019060200180831161180657829003601f168201915b505050505081526020016007820160009054906101000a900460ff161515151581526020016007820160019054906101000a900460ff161515151581526020016007820160029054906101000a900473ffffffffffffffffffffffffffffffffffffffff1673ffffffffffffffffffffffffffffffffffffffff1673ffffffffffffffffffffffffffffffffffffffff1681526020016008820160009054906101000a900473ffffffffffffffffffffffffffffffffffffffff1673ffffffffffffffffffffffffffffffffffffffff1673ffffffffffffffffffffffffffffffffffffffff1681526020016009820160009054906101000a900473ffffffffffffffffffffffffffffffffffffffff1673ffffffffffffffffffffffffffffffffffffffff1673ffffffffffffffffffffffffffffffffffffffff16815250509050919050565b611974826108e8565b61197d81611f17565b6119878383612024565b50505050565b600034116119d0576040517f08c379a00000000000000000000000000000000000000000000000000000000081526004016119c7906136ba565b60405180910390fd5b6119fa7f0000000000000000000000000000000000000000000000000000000000000000336114b5565b611b6b57600034600760003373ffffffffffffffffffffffffffffffffffffffff1673ffffffffffffffffffffffffffffffffffffffff16815260200190815260200160002054611a4b91906134bc565b90507f00000000000000000000000000000000000000000000000000000000000000008110611ae45780600860003373ffffffffffffffffffffffffffffffffffffffff1673ffffffffffffffffffffffffffffffffffffffff16815260200190815260200160002081905550611ae27f000000000000000000000000000000000000000000000000000000000000000033611f2b565b505b34600760003373ffffffffffffffffffffffffffffffffffffffff1673ffffffffffffffffffffffffffffffffffffffff1681526020019081526020016000206000828254611b3391906134bc565b92505081905550611b647f000000000000000000000000000000000000000000000000000000000000000033611f2b565b5050611c18565b34600760003373ffffffffffffffffffffffffffffffffffffffff1673ffffffffffffffffffffffffffffffffffffffff1681526020019081526020016000206000828254611bba91906134bc565b9250508190555034600860003373ffffffffffffffffffffffffffffffffffffffff1673ffffffffffffffffffffffffffffffffffffffff1681526020019081526020016000206000828254611c1091906134bc565b925050819055505b3460036000828254611c2a91906134bc565b925050819055503073ffffffffffffffffffffffffffffffffffffffff163373ffffffffffffffffffffffffffffffffffffffff167fa596782d699d74613fcbf59d33e720baabd313d6be9c95e2268f305430305eb77f000000000000000000000000000000000000000000000000000000000000000034604051611cb0929190613726565b60405180910390a3565b60006040518060400160405280601c81526020017f556e617574686f72697a65643a206e6f7420612070726f706f73657200000000815250611d1c7f0000000000000000000000000000000000000000000000000000000000000000336114b5565b8190611d5e576040517f08c379a0000000000000000000000000000000000000000000000000000000008152600401611d559190612f22565b60405180910390fd5b50600860003373ffffffffffffffffffffffffffffffffffffffff1673ffffffffffffffffffffffffffffffffffffffff1681526020019081526020016000205491505090565b60007f01ffc9a7000000000000000000000000000000000000000000000000000000007bffffffffffffffffffffffffffffffffffffffffffffffffffffffff1916827bffffffffffffffffffffffffffffffffffffffffffffffffffffffff1916149050919050565b600260005403611e4b576040517f3ee5aeb500000000000000000000000000000000000000000000000000000000815260040160405180910390fd5b6002600081905550565b6000808373ffffffffffffffffffffffffffffffffffffffff1683604051611e7c90613793565b60006040518083038185875af1925050503d8060008114611eb9576040519150601f19603f3d011682016040523d82523d6000602084013e611ebe565b606091505b5050905080611f02576040517f08c379a0000000000000000000000000000000000000000000000000000000008152600401611ef9906137f4565b60405180910390fd5b600191505092915050565b6001600081905550565b611f2881611f2361201c565b6122a5565b50565b6000611f3783836114b5565b61201157600180600085815260200190815260200160002060000160008473ffffffffffffffffffffffffffffffffffffffff1673ffffffffffffffffffffffffffffffffffffffff16815260200190815260200160002060006101000a81548160ff021916908315150217905550611fae61201c565b73ffffffffffffffffffffffffffffffffffffffff168273ffffffffffffffffffffffffffffffffffffffff16847f2f8788117e7eff1d82e926ec794901d17c78024a50270940304540a733656f0d60405160405180910390a460019050612016565b600090505b92915050565b600033905090565b600061203083836114b5565b1561210c5760006001600085815260200190815260200160002060000160008473ffffffffffffffffffffffffffffffffffffffff1673ffffffffffffffffffffffffffffffffffffffff16815260200190815260200160002060006101000a81548160ff0219169083151502179055506120a961201c565b73ffffffffffffffffffffffffffffffffffffffff168273ffffffffffffffffffffffffffffffffffffffff16847ff6391f5c32d9c69d2a47ea670b442974b53935d1edc7fd64eb21e047a839171b60405160405180910390a460019050612111565b600090505b92915050565b8060070160009054906101000a900460ff1680612138575042816002015411155b156121955760018160070160006101000a81548160ff0219169083151502179055506040517f08c379a000000000000000000000000000000000000000000000000000000000815260040161218c90613860565b60405180910390fd5b6000600560003373ffffffffffffffffffffffffffffffffffffffff1673ffffffffffffffffffffffffffffffffffffffff16815260200190815260200160002080548060200260200160405190810160405280929190818152602001828054801561222057602002820191906000526020600020905b81548152602001906001019080831161220c575b5050505050905060005b81518110156122a057818181518110612246576122456131d3565b5b6020026020010151836000015403612293576040517f08c379a000000000000000000000000000000000000000000000000000000000815260040161228a906138cc565b60405180910390fd5b808060010191505061222a565b505050565b6122af82826114b5565b6122f25780826040517fe2517d3f0000000000000000000000000000000000000000000000000000000081526004016122e99291906138fb565b60405180910390fd5b5050565b60405180610180016040528060008152602001600081526020016000815260200160008152602001600081526020016060815260200160608152602001600015158152602001600015158152602001600073ffffffffffffffffffffffffffffffffffffffff168152602001600073ffffffffffffffffffffffffffffffffffffffff168152602001600073ffffffffffffffffffffffffffffffffffffffff1681525090565b6040518060600160405280600073ffffffffffffffffffffffffffffffffffffffff168152602001600081526020016000151581525090565b6000604051905090565b600080fd5b600080fd5b60007fffffffff0000000000000000000000000000000000000000000000000000000082169050919050565b61241f816123ea565b811461242a57600080fd5b50565b60008135905061243c81612416565b92915050565b600060208284031215612458576124576123e0565b5b60006124668482850161242d565b91505092915050565b60008115159050919050565b6124848161246f565b82525050565b600060208201905061249f600083018461247b565b92915050565b6000819050919050565b6124b8816124a5565b81146124c357600080fd5b50565b6000813590506124d5816124af565b92915050565b6000602082840312156124f1576124f06123e0565b5b60006124ff848285016124c6565b91505092915050565b612511816124a5565b82525050565b600060208201905061252c6000830184612508565b92915050565b6000819050919050565b61254581612532565b811461255057600080fd5b50565b6000813590506125628161253c565b92915050565b60006020828403121561257e5761257d6123e0565b5b600061258c84828501612553565b91505092915050565b61259e81612532565b82525050565b60006020820190506125b96000830184612595565b92915050565b600073ffffffffffffffffffffffffffffffffffffffff82169050919050565b60006125ea826125bf565b9050919050565b6125fa816125df565b811461260557600080fd5b50565b600081359050612617816125f1565b92915050565b60008060408385031215612634576126336123e0565b5b600061264285828601612553565b925050602061265385828601612608565b9150509250929050565b600081519050919050565b600082825260208201905092915050565b6000819050602082019050919050565b612692816124a5565b82525050565b600081519050919050565b600082825260208201905092915050565b60005b838110156126d25780820151818401526020810190506126b7565b60008484015250505050565b6000601f19601f8301169050919050565b60006126fa82612698565b61270481856126a3565b93506127148185602086016126b4565b61271d816126de565b840191505092915050565b6127318161246f565b82525050565b6000612742826125bf565b9050919050565b61275281612737565b82525050565b612761816125df565b82525050565b6000610180830160008301516127806000860182612689565b5060208301516127936020860182612689565b5060408301516127a66040860182612689565b5060608301516127b96060860182612689565b5060808301516127cc6080860182612689565b5060a083015184820360a08601526127e482826126ef565b91505060c083015184820360c08601526127fe82826126ef565b91505060e083015161281360e0860182612728565b50610100830151612828610100860182612728565b5061012083015161283d610120860182612749565b50610140830151612852610140860182612758565b50610160830151612867610160860182612758565b508091505092915050565b600061287e8383612767565b905092915050565b6000602082019050919050565b600061289e8261265d565b6128a88185612668565b9350836020820285016128ba85612679565b8060005b858110156128f657848403895281516128d78582612872565b94506128e283612886565b925060208a019950506001810190506128be565b50829750879550505050505092915050565b600060208201905081810360008301526129228184612893565b905092915050565b600081519050919050565b600082825260208201905092915050565b6000819050602082019050919050565b60608201600082015161296c6000850182612758565b50602082015161297f6020850182612689565b5060408201516129926040850182612728565b50505050565b60006129a48383612956565b60608301905092915050565b6000602082019050919050565b60006129c88261292a565b6129d28185612935565b93506129dd83612946565b8060005b83811015612a0e5781516129f58882612998565b9750612a00836129b0565b9250506001810190506129e1565b5085935050505092915050565b60006020820190508181036000830152612a3581846129bd565b905092915050565b600080fd5b600080fd5b7f4e487b7100000000000000000000000000000000000000000000000000000000600052604160045260246000fd5b612a7f826126de565b810181811067ffffffffffffffff82111715612a9e57612a9d612a47565b5b80604052505050565b6000612ab16123d6565b9050612abd8282612a76565b919050565b600067ffffffffffffffff821115612add57612adc612a47565b5b612ae6826126de565b9050602081019050919050565b82818337600083830152505050565b6000612b15612b1084612ac2565b612aa7565b905082815260208101848484011115612b3157612b30612a42565b5b612b3c848285612af3565b509392505050565b600082601f830112612b5957612b58612a3d565b5b8135612b69848260208601612b02565b91505092915050565b60008060008060808587031215612b8c57612b8b6123e0565b5b600085013567ffffffffffffffff811115612baa57612ba96123e5565b5b612bb687828801612b44565b945050602085013567ffffffffffffffff811115612bd757612bd66123e5565b5b612be387828801612b44565b9350506040612bf487828801612608565b9250506060612c05878288016124c6565b91505092959194509250565b612c1a8161246f565b8114612c2557600080fd5b50565b600081359050612c3781612c11565b92915050565b60008060408385031215612c5457612c536123e0565b5b6000612c62858286016124c6565b9250506020612c7385828601612c28565b9150509250929050565b606082016000820151612c936000850182612758565b506020820151612ca66020850182612689565b506040820151612cb96040850182612728565b50505050565b6000606082019050612cd46000830184612c7d565b92915050565b600081519050919050565b600082825260208201905092915050565b6000819050602082019050919050565b6000612d128383612689565b60208301905092915050565b6000602082019050919050565b6000612d3682612cda565b612d408185612ce5565b9350612d4b83612cf6565b8060005b83811015612d7c578151612d638882612d06565b9750612d6e83612d1e565b925050600181019050612d4f565b5085935050505092915050565b60006020820190508181036000830152612da38184612d2b565b905092915050565b600061018083016000830151612dc46000860182612689565b506020830151612dd76020860182612689565b506040830151612dea6040860182612689565b506060830151612dfd6060860182612689565b506080830151612e106080860182612689565b5060a083015184820360a0860152612e2882826126ef565b91505060c083015184820360c0860152612e4282826126ef565b91505060e0830151612e5760e0860182612728565b50610100830151612e6c610100860182612728565b50610120830151612e81610120860182612749565b50610140830151612e96610140860182612758565b50610160830151612eab610160860182612758565b508091505092915050565b60006020820190508181036000830152612ed08184612dab565b905092915050565b600082825260208201905092915050565b6000612ef482612698565b612efe8185612ed8565b9350612f0e8185602086016126b4565b612f17816126de565b840191505092915050565b60006020820190508181036000830152612f3c8184612ee9565b905092915050565b7f496e73756666696369656e742066756e64000000000000000000000000000000600082015250565b6000612f7a601183612ed8565b9150612f8582612f44565b602082019050919050565b60006020820190508181036000830152612fa981612f6d565b9050919050565b7f5061796d656e742073656e74206265666f726500000000000000000000000000600082015250565b6000612fe6601383612ed8565b9150612ff182612fb0565b602082019050919050565b6000602082019050818103600083015261301581612fd9565b9050919050565b7f496e73756666696369656e7420766f7465730000000000000000000000000000600082015250565b6000613052601283612ed8565b915061305d8261301c565b602082019050919050565b6000602082019050818103600083015261308181613045565b9050919050565b7f4e487b7100000000000000000000000000000000000000000000000000000000600052601160045260246000fd5b60006130c2826124a5565b91506130cd836124a5565b92508282039050818111156130e5576130e4613088565b5b92915050565b7f5041594d454e54205452414e5346455245440000000000000000000000000000600082015250565b6000613121601283612ed8565b915061312c826130eb565b602082019050919050565b600060608201905061314c6000830185612595565b818103602083015261315d81613114565b905061316c6040830184612508565b9392505050565b7f4e487b7100000000000000000000000000000000000000000000000000000000600052602260045260246000fd5b600060028204905060018216806131ba57607f821691505b6020821081036131cd576131cc613173565b5b50919050565b7f4e487b7100000000000000000000000000000000000000000000000000000000600052603260045260246000fd5b600063ffffffff82169050919050565b600061321d82613202565b915063ffffffff820361323357613232613088565b5b600182019050919050565b60008190508160005260206000209050919050565b60006020601f8301049050919050565b600082821b905092915050565b6000600883026132a07fffffffffffffffffffffffffffffffffffffffffffffffffffffffffffffffff82613263565b6132aa8683613263565b95508019841693508086168417925050509392505050565b6000819050919050565b60006132e76132e26132dd846124a5565b6132c2565b6124a5565b9050919050565b6000819050919050565b613301836132cc565b61331561330d826132ee565b848454613270565b825550505050565b600090565b61332a61331d565b6133358184846132f8565b505050565b5b818110156133595761334e600082613322565b60018101905061333b565b5050565b601f82111561339e5761336f8161323e565b61337884613253565b81016020851015613387578190505b61339b61339385613253565b83018261333a565b50505b505050565b600082821c905092915050565b60006133c1600019846008026133a3565b1980831691505092915050565b60006133da83836133b0565b9150826002028217905092915050565b6133f382612698565b67ffffffffffffffff81111561340c5761340b612a47565b5b61341682546131a2565b61342182828561335d565b600060209050601f8311600181146134545760008415613442578287015190505b61344c85826133ce565b8655506134b4565b601f1984166134628661323e565b60005b8281101561348a57848901518255600182019150602085019450602081019050613465565b868310156134a757848901516134a3601f8916826133b0565b8355505b6001600288020188555050505b505050505050565b60006134c7826124a5565b91506134d2836124a5565b92508282019050808211156134ea576134e9613088565b5b92915050565b7f50524f504f53414c205241495345440000000000000000000000000000000000600082015250565b6000613526600f83612ed8565b9150613531826134f0565b602082019050919050565b60006060820190506135516000830185612595565b818103602083015261356281613519565b90506135716040830184612508565b9392505050565b6000613583826124a5565b91507fffffffffffffffffffffffffffffffffffffffffffffffffffffffffffffffff82036135b5576135b4613088565b5b600182019050919050565b7f50524f504f53414c20564f544500000000000000000000000000000000000000600082015250565b60006135f6600d83612ed8565b9150613601826135c0565b602082019050919050565b60006060820190506136216000830185612595565b8181036020830152613632816135e9565b90506136416040830184612508565b9392505050565b7f436f6e747269627574696e67207a65726f206973206e6f7420616c6c6f77656460008201527f2e00000000000000000000000000000000000000000000000000000000000000602082015250565b60006136a4602183612ed8565b91506136af82613648565b604082019050919050565b600060208201905081810360008301526136d381613697565b9050919050565b7f434f4e545249425554494f4e2052454345495645440000000000000000000000600082015250565b6000613710601583612ed8565b915061371b826136da565b602082019050919050565b600060608201905061373b6000830185612595565b818103602083015261374c81613703565b905061375b6040830184612508565b9392505050565b600081905092915050565b50565b600061377d600083613762565b91506137888261376d565b600082019050919050565b600061379e82613770565b9150819050919050565b7f5061796d656e74206661696c6564000000000000000000000000000000000000600082015250565b60006137de600e83612ed8565b91506137e9826137a8565b602082019050919050565b6000602082019050818103600083015261380d816137d1565b9050919050565b7f70726f706f73616c206475726174696f6e206578706972656400000000000000600082015250565b600061384a601983612ed8565b915061385582613814565b602082019050919050565b600060208201905081810360008301526138798161383d565b9050919050565b7f446f75626c6520766f74696e67206e6f7420616c6c6f77656400000000000000600082015250565b60006138b6601983612ed8565b91506138c182613880565b602082019050919050565b600060208201905081810360008301526138e5816138a9565b9050919050565b6138f5816125df565b82525050565b600060408201905061391060008301856138ec565b61391d6020830184612595565b939250505056fe70726f706f73616c206372656174696f6e20616c6c6f77656420666f72207468652070726f706f73657273206f6e6c7944656e6965643a2055736572206973206e6f742061207374616b65686f6c646572556e617574686f72697a6564206163636573733a2050726f706f73657273206f6e6c79207065726d6974746564a26469706673582212205f12836c1161bb005060f3d7685b900922b817e3f59cf4e0f18fe273ee112f5f64736f6c63430008160033",
    "linkReferences": {},
    "deployedLinkReferences": {}
}